:0400000080310C2817
:100008007E1480310B1F0A28803120207E100900C1
:1000180080310E28F0308400203085000030FE004A
:100028000130FF008031ED20F801F901FA01FB01F0
:100038007E1020008031F9282000911D2B282400F3
:100048001108F4007408FB00151620009111901D8A
:1000580008002400151B3228951F39281108F400C0
:100068007408FB0015139513A428941D9328941A5B
:1000780048281108F4007408FA007A08813106212A
:100088008031F801F90173281419732801307902B5
:10009800003003197802031C5E28F030F00020308D
:1000A800F1007908F3007808F20081310A218031E3
:1000B800F801F901F030F4002030F50078087407F1
:1000C800F6007908753DF7007608860077088700FE
:1000D8002400110881000130F8070030F93D2400A0
:1000E800141DA42878087904031D8128F030F00035
:1000F8002030F100813109218031F030F4002030C6
:10010800F5007808740786007908753D87000108AE
:10011800240091000130F8070030F93DA428141E8E
:10012800A4281419A228F030F0002030F100790832
:10013800F3007808F20081310A21803181310321EE
:10014800240015162000901108002100951724009E
:100158008E010E108E1010303C00A0001130A1004E
:1001680010303D00A0001130A10021008C010130A9
:1001780020008C0021000E148E140E118E110E1208
:100188008E1220000E118E150E168E1625000E14D6
:100198008E1408002000A000210090152000901166
:1001A8002100911520009111203524009200FF3084
:1001B800930094171417951315139516151615080B
:1001C800F03906389500161417179716971517154E
:1001D80008006400800101310130FE020030FF3B5D
:1001E8007F087E0403190034EE288031A92080316D
:1001F8008B170B1718308031CE2080310229200050
:0E0208000E11080020000E1508000800080066
:020000040001F9
:06000E00BF39FF1F9F3FF8
:00000001FF
