:0400000080310C2817
:100008007E1480310B1F0A28803120207E100900C1
:1000180080310E28F0308400203085000030FE004A
:100028000130FF0081311521F801F901FA01FB01C6
:100038007E102000813108292000911D2B282400E2
:100048001108F4007408FB00151620009111901D8A
:1000580008002400151B3228951F39281108F400C0
:100068007408FB0015139513A428941D9328941A5B
:1000780048281108F4007408FA007A0881312A2106
:100088008031F801F90173281419732801307902B5
:10009800003003197802031C5E28F030F00020308D
:1000A800F1007908F3007808F20081312E218031BF
:1000B800F801F901F030F4002030F50078087407F1
:1000C800F6007908753DF7007608860077088700FE
:1000D8002400110881000130F8070030F93D2400A0
:1000E800141DA42878087904031D8128F030F00035
:1000F8002030F10081312D218031F030F4002030A2
:10010800F5007808740786007908753D87000108AE
:10011800240091000130F8070030F93DA428141E8E
:10012800A4281419A228F030F0002030F100790832
:10013800F3007808F20081312E21803181312721A6
:100148002400151620009011080010303C00A00073
:100158001130A10010303D00A0001130A100230093
:100168000C108C100C110C1221000C108C100C119E
:100178008C110C128C1224000C108C100C118C1188
:100188000C128C1220000C148C140C158C150C16E7
:100198008C1623000E108E100E118E1121000E14D5
:1001A8008E140E118E110E128E1224000E108E1047
:1001B8000E118E110E128E1225000E148E142000B0
:1001C8000E118E150E168E1608002000A0002100B4
:1001D80090152000901121009115200091112035D3
:1001E80024009200FF3093009417141795131513E9
:1001F800951615161508F0390638950016141717B0
:100208009716971517150800813121218131803102
:10021800A92081318B170B1718308031E9208131E3
:1002280014296400800101310130FE020030FF3BD7
:100238007F087E040319003416292100190887391C
:1002480068389900080020000E11080020000E15DB
:0602580008000800080088
:020000040001F9
:06000E00BC3FFF1F9F3FF5
:00000001FF
